:02000000942B3F
:10000600A03083120313F0000F30F100F201F30168
:020016000800E0
:10001800831203132230FC00F801F901FA01FB01F5
:10002800FC03031942280310FB0CFA0CF90CF80C1A
:10003800F30CF20CF10CF00C031C1428FC0303194C
:1000480034287408F80775080318750FF907760837
:100058000318760FFA0777080318770FFB07182895
:100068007408F80775080318750FF9077608031858
:0E007800760FFA0777080318770FFB070800CA
:1000860083120313FB01FA01F901F801A001730DB4
:10009600F80D7408F8027508031C750FF902760846
:1000A600031C760FFA027708031C770FFB02000188
:1000B600031C0130A002F30D0730FC00730DF80D90
:1000C600F90DFA0DFB0DA00D7408731C7C28F802BF
:1000D6007508031C750FF9027608031C760FFA02E1
:1000E6007708031C770FFB020001031C0130A002F6
:1000F6008D28F80775080318750FF9077608031891
:10010600760FFA0777080318770FFB070001031825
:100116000130A007F30DFC0B6128720DF80DF90DE7
:10012600FA0DFB0DA00D7408731CAB28F8027508B8
:10013600031C750FF9027608031C760FFA0277087E
:10014600031C770FFB020001031C0130A002BC2830
:10015600F80775080318750FF90776080318760F60
:10016600FA0777080318770FFB0700010318013019
:10017600A007F20D0730FC00720DF80DF90DFA0D0F
:10018600FB0DA00D7408721CDA28F8027508031C12
:10019600750FF9027608031C760FFA027708031C1E
:1001A600770FFB020001031C0130A002EB28F807C1
:1001B60075080318750FF90776080318760FFA07FE
:1001C60077080318770FFB07000103180130A00713
:1001D600F20DFC0BBF28710DF80DF90DFA0DFB0D94
:1001E600A00D7408721C0929F8027508031C750F06
:1001F600F9027608031C760FFA027708031C770FBC
:10020600FB020001031C0130A0021A29F807750839
:100216000318750FF90776080318760FFA0777089B
:100226000318770FFB07000103180130A007F10D33
:100236000730FC00710DF80DF90DFA0DFB0DA00D40
:100246007408711C3829F8027508031C750FF90229
:100256007608031C760FFA027708031C770FFB0259
:100266000001031C0130A0024929F807750803188C
:10027600750FF90776080318760FFA07770803183B
:10028600770FFB07000103180130A007F10DFC0BE7
:100296001D29700DF80DF90DFA0DFB0DA00D740852
:1002A600711C6729F8027508031C750FF902760898
:1002B600031C760FFA027708031C770FFB02000176
:1002C600031C0130A0027829F80775080318750F7A
:1002D600F90776080318760FFA0777080318770FD9
:1002E600FB07000103180130A007F00D0730FC00E2
:1002F600700DF80DF90DFA0DFB0DA00D7408701CAC
:100306009629F8027508031C750FF9027608031C76
:10031600760FFA027708031C770FFB020001031C15
:100326000130A002A729F80775080318750FF90709
:1003360076080318760FFA0777080318770FFB0776
:10034600000103180130A007F00DFC0B7B29701883
:10035600BA297408F80775080318750FF90776089F
:100366000318760FFA0777080318770FFB070800BC
:1003760083120313F801F9011030FC00710DF80D1A
:10038600F90D7408F8027508031C750FF9020318B5
:10039600D3297408F80775080318750FF9070310B1
:0A03A600F00DF10DFC0BC129080059
:1003B00083120313B403B4033408003C0318E52983
:1003C000B403000000000000DC2900000000000071
:0603D0000000000008001F
:0E03D6008312031322088A0021088200080007
:1003E4000320E830F4000330F500F601F7010C2097
:1003F4007008B0007108B1007208B2007308B3004D
:100404002808F4002908F500F601F70143207008D4
:10041400B0007108B1007208B2007308B30070082C
:10042400F5007108F6007208F7007308F800F80C7C
:10043400F70CF60CF50CF813F80CF70CF60CF50C9D
:10044400F8137508F0007608F1007708F2007808D0
:10045400F300F30CF20CF10CF00CF3137008AC0085
:100464007108AD0003202A08F4002B08F500F601FA
:10047400F7010C202C08F9002D08FA00FB01FC01FF
:100484000330F8007908F4007A08F5007B08F600D8
:100494007C08F70078080319562AF40DF50DF60DBB
:1004A400F70D7410FF3E4D2A43207008B000710808
:1004B400B1007208B2007308B3000A30F4000030CF
:1004C400F5002C08F0002D08F100BB217008AC00E9
:1004D4007108AD0000307102031D722A03307002EE
:1004E4000318752AC22A250884003308003C031D1A
:1004F400852A3208003C031D852A3108003C031D6F
:10050400852A3008003C0318C02A230880042D08DB
:1005140003199C2AAE01AF0100302F02031D942A57
:100524002D082E0203189C2AB401D821AE0A0319FF
:10053400AF0A8E2A2C08B400D821240880052D087F
:100544000319B42AAE01AF0100302F02031DAC2AF7
:100554002D082E020318B42AB401D821AE0A0319B7
:10056400AF0AA62A2C08B400D8210130B002031C1B
:10057400B102031CB202031CB302772A24088005CB
:0205840008006D
:10058600883083120313A8000130A900F430AA00B2
:100596000130AB00F2210230FB008630FC009930BE
:1005A600FD00FD0BD42AFC0BD42AFB0BD42A080031
:1005B600831203132608A5002708F1000130F00076
:1005C60071080319EA2AF00D7010FF3EE42A70083C
:1005D600A300F0097008A400803026078400700884
:0A05E60080058413700880050800EA
:1005F000493083120313A8000130A900F430AA0087
:100600000130AB00F2210230FB008630FC00993053
:10061000FD00FD0B092BFC0B092BFB0B092B080024
:10062000B83083120313A8000130A900F430AA00E7
:100630000130AB00F2210230FB008630FC00993023
:10064000FD00FD0B212BFC0B212BFB0B212B0800AC
:10065000053083120313A8000130A900F430AA006A
:100660000130AB00F2210230FB008630FC009930F3
:10067000FD00FD0B392BFC0B392BFB0B392B080034
:100680005D3083120313A8000130A900F430AA00E2
:100690000130AB00F2210230FB008630FC009930C3
:1006A000FD00FD0B512BFC0B512BFB0B512B0800BC
:1006B000253083120313A8000130A900F430AA00EA
:1006C0000130AB00F2210230FB008630FC00993093
:1006D000FD00FD0B692BFC0B692BFB0B692B080044
:1006E000ED3083120313A8000130A900F430AA00F2
:1006F0000130AB00F2210230FB008630FC00993063
:10070000FD00FD0B812BFC0B812BFB0B812B0800CB
:10071000EB218A110A128000840AA10A0319A20A95
:08072000F003031D882B080003
:100728008316031788018901FF30860003138801A7
:10073800831288010830A6000330A700DB22142C9E
:100748000130880028230230FB008630FC009930F5
:10075800FD00FD0BAD2BFC0BAD2BFB0BAD2B302C9B
:100768000230880058230230FB008630FC009930A4
:10077800FD00FD0BBD2BFC0BBD2BFB0BBD2B302C4B
:1007880004308800F8220230FB008630FC009930E3
:10079800FD00FD0BCD2BFC0BCD2BFB0BCD2B302CFB
:1007A8000530880040230230FB008630FC00993079
:1007B800FD00FD0BDD2BFC0BDD2BFB0BDD2B302CAB
:1007C80006308800C3220230FB008630FC009930D6
:1007D800FD00FD0BED2BFC0BED2BFB0BED2B302C5B
:1007E8000330880010230230FB008630FC0099306B
:1007F800FD00FD0BFD2BFC0BFD2BFB0BFD2B302C0B
:100808000730880070230230FB008630FC009930E6
:10081800FD00FD0B0D2CFC0B0D2CFB0B0D2C302CB7
:100828000608013A0319A42B0608023A0319B42B47
:100838000608043A0319C42B0608083A0319D42BEE
:100848000608103A0319E42B0608203A0319F42B7A
:0C0858000608403A0319042CA32B312C95
:04400E00D2230007B2
:00000001FF
